:03000000020008F3
:06006100E4F508F509F5C5
:030067000AF50B8C
:03006A000200038E
:0500030012007780FEF1
:0A006D00AA828A9074FF6AF5B0229F
:05007700E4F50CF50D9D
:0A007C00C3E50C94FFE50D648094C9
:0B008600805026AA0C74022AF582129A
:06009100006D0508E4B556
:05009700080C0509B58D
:05009C000907050AB58B
:0400A1000A02050B3F
:0700A500050CE4B50CD105C8
:0300AC000D80CDF7
:0700AF00E50824EAF508E56D
:0600B6000934FFF509E525
:0600BC000A34FFF50AE51D
:0700C2000B34FFF50B80AECB
:06003700E478FFF6D8FD9D
:080015007900E94400601B7A48
:05001D00009000CD7809
:030022000075A0C6
:0A00250000E493F2A308B8000205FE
:08002F00A0D9F4DAF275A0FF7C
:08003D007800E84400600A7934
:030045000075A0A3
:0600480000E4F309D8FCFE
:08004E007800E84400600C7921
:0B00560000900000E4F0A3D8FCD9FAF1
:0300080075810DF2
:0A000B001200C9E582600302000341
:0400C900758200221A
:00000001FF
