:03000000020008F3
:0300610002000397
:0500030012006480FE04
:05006400E4F509F50AB6
:0A006900C3E5099404E50A648094DD
:0A0073008050EEE509241AF582E53D
:0A007D000A3401F583E493F5908541
:06008700900853080F630E
:08008D00080FE50830E00575DD
:040095000800801FC0
:0A009900E50830E105750801801547
:0A00A300E50830E205750802800B45
:0800AD00E50820E30302010B4A
:0300B500750803C8
:0A00B800E4B50906E4B50A0280234E
:0A00C2007401B50906E4B50A0280D6
:0100CC002211
:0A00CD007402B50906E4B50A0280CA
:0100D7002107
:0A00D8007403B50906E4B50A0280BE
:0100E20020FD
:0200E300802675
:0A00E500E50890011E93F5B0801CA1
:0A00EF00E50890012293F5B080129D
:0A00F900E50890012693F5B0800899
:08010300E50890012A93F5B014
:07010B000509E4B509020536
:010112000AE2
:030113000200697E
:04011A00EFDFBF7FD5
:04011E00F9647048C8
:0401220059524240AC
:04012600F84050C687
:04012A0079C049C08F
:06003700E478FFF6D8FD9D
:080015007900E94400601B7A48
:05001D000090012E78A7
:030022000075A0C6
:0A00250000E493F2A308B8000205FE
:08002F00A0D9F4DAF275A0FF7C
:08003D007800E84400600A7934
:030045000075A0A3
:0600480000E4F309D8FCFE
:08004E007800E84400600C7921
:0B00560000900000E4F0A3D8FCD9FAF1
:0300080075810AF5
:0A000B00120116E5826003020003F3
:0401160075820022CC
:00000001FF
