:03000000020008F3
:0300610002000397
:0500030012006480FE04
:040064007A007B00A3
:0E006800C3EA9408EB6480948050F17590FF19
:0A007600EA24A7F582EB3400F583BD
:0E008000E493F5808AF005F07C017D00800697
:06008E00EC2CFCED33FD3B
:0E009400D5F0F774FF6CF5900ABA00C80B8027
:0100A200C598
:0800A700B19DBDB1B7B711FF17
:06003700E478FFF6D8FD9D
:080015007900E94400601B7A48
:05001D00009000AF7827
:030022000075A0C6
:0A00250000E493F2A308B8000205FE
:08002F00A0D9F4DAF275A0FF7C
:08003D007800E84400600A7934
:030045000075A0A3
:0600480000E4F309D8FCFE
:08004E007800E84400600C7921
:0B00560000900000E4F0A3D8FCD9FAF1
:03000800758107F8
:0A000B001200A3E582600302000367
:0400A3007582002240
:00000001FF
